:020000040000FA
:0400000081EF00F09C
:100008003C01240124012401400024014000240172
:1000180024012401240124012401240124012401B0
:10002800240140004000400024012401240124014F
:100038002401240124013501F200240124012401B2
:10004800240124012401240140004000240124014A
:100058002401240124014000240124012401240155
:100068002401240124012401240124012401240160
:100078002401240124012401400024012401240135
:100088002401240124012401240124012401240140
:1000980024012401240124014000240140004000DF
:1000A8002401240124012401240124012401240120
:1000B8002401240124012401240124012401240110
:1000C8002401240124012401240124012401240100
:1000D80024012401240124012401240124012401F0
:1000E8004000240124012401400040004000400059
:1000F8002401240124012401FF0069EF01F0808319
:1001080086898C8F9295989B9EA2A5A7AAADB0B31D
:10011800B6B9BCBEC1C4C6C9CBCED0D3D5D7DADC3C
:10012800DEE0E2E4E6E8EAEBEDEEF0F1F3F4F5F612
:10013800F8F9FAFAFBFCFDFDFEFEFEFFFFFFFFFFEC
:10014800FFFFFEFEFEFDFDFCFBFAFAF9F8F6F5F4FA
:10015800F3F1F0EEEDEBEAE8E6E4E2E0DEDCDAD734
:10016800D5D3D0CECBC9C6C4C1BEBCB9B6B3B0AD69
:10017800AAA7A5A29E9B9895928F8C898683807C3E
:10018800797673706D6A6764615D5A5855524F4C41
:10019800494643413E3B393634312F2C2A28252302
:1001A800211F1D1B1917151412110F0E0C0B0A090C
:1001B8000706050504030202010101000000000012
:1001C80000000101010202030405050607090A0BE4
:1001D8000C0E0F1112141517191B1D1F212325288A
:1001E8002A2C2F313436393B3E414346494C4F5235
:1001F80055585A5D6164676A6D707376797C4C50A6
:10020800020D010EF324D96E050EF420DA6EDE50CD
:10021800495CDE504A58D8B014EF01F016EF01F0EF
:100228002AEF01F04C50020D1F0EF324D96E050E73
:10023800F420DA6E610078F352F5610074F353F537
:10024800010E546E9BEC01F066EF01F04C50020D6C
:10025800010EF324D96E050EF420DA6E4950DE182B
:1002680007E14A50DE18D8A43CEF01F03EEF01F058
:1002780066EF01F0000E4A6E000E496E4C2A000E21
:100288005A6E000E596E000E536E000E526E010E1D
:10029800546E9BEC01F0594A5A2A5A5009E1320E21
:1002A800595CD8A05AEF01F05CEF01F047EF01F07C
:1002B8000E0E4C6462EF01F064EF01F066EF01F09E
:1002C800000E4C6E494A4A2A1200060EF66E010EBE
:1002D800F76E000EF86E01EE00F210EE00F1090064
:1002E800F5C4EEF4E550E150FAE1E250F8E18A0E87
:1002F800F66E030EF76E000EF86E01EE01F110EEC9
:100308003CF00900F5C4EEF4E550E150FAE101EEE5
:100318003DF1140EEE6AE806FDE10401080E5D6F7A
:10032800000E5E6F000E5F6F00011BEF02F003010D
:100338001E91800E535CD8A0A4EF01F0A6EF01F047
:10034800A9EF01F07F0E536E5268521C556E531C74
:10035800566E56504E6E55C54DF5610038F51DF375
:10036800610034F51CF34F905450D8B4BEEF01F03F
:10037800C0EF01F0C1EF01F04F80B198A1881E8154
:100388001200000200020002000200020002000443
:10039800000200020002000200020002000400083D
:1003A8003C003C00280028002400240028002D00E0
:0E03B8002D002F002F00350035003C00000006
:1003C800610038F51DF3610034F51CF3000E4B2471
:1003D800D96EDA6A060EDA22DF5000017D6F040E4C
:1003E8004B26B1984FB0FBEF01F0FDEF01F000EFA5
:1003F80002F0A19803011E911100000E456E000E37
:10040800466E000E476E000E486E000E416E000EDE
:10041800426E000E436E000E446E7D0E0301236F84
:10042800010E266FB196F00E246FA1861200508E31
:100438007AEC02F055EC02F073EC02F001EC02F0F9
:1004480031EC02F0509E03EC01F0BE9E60EC02F02D
:10045800BE8E27EF02F081EF00F0C00EBE16900EA0
:1004680003011A6F540E1B6F000E1F6F010E216FD0
:10047800310E1E6F000E536E100E526E010E546E2A
:060488009BEC01F01200E4
:10049000610060F351F5010E3D26000E3E223F2221
:1004A0004022610044F5D8F41100000E0401006FF1
:1004B000000EC66EA00E00017F6F000E7D6F120051
:1004C000508C50BC66EF02F068EF02F061EF02F072
:0204D000120018
:1004D400B196509C010E4526000E46224722482222
:0A04E4001100D68AD68ED68C1200C5
:0604F000AE9011001200A5
:020000040020DA
:10000000FF0FFF0FFF0FFF0FFF0FFF0FFF0FFF0F80
:10001000FF0FFF0FFF0FFF0FFF0FFF0FFF0FFF0F70
:020000040030CA
:0A0000008CFEFFFC9FFFFFFFFFFFD7
:00000001FF
