:020000040000FA
:04000000FEEFFFF020
:020000040001F9
:10FEB80012001200012002100408900E03011A6FAC
:10FEC800540E1B6F1200000ECE6E000EC66E800E12
:10FED800BE6E000E0401006F1200000E096E000EC7
:10FEE8000A6E000E0B6E000E0C6E000E056E000EF4
:10FEF800066E000E076E000E086E120003011A51FE
:10FF08007F0B1A6F171C196E181C1A6E1AC519F573
:10FF18001A6A1950196F1750FF0A186FB1507F0BE2
:10FF2800B16E1A5180091A6F1200BC0EF66EFE0EE1
:10FF3800F76E010EF86E01EE11F110EE06F00900F1
:10FF4800F5C4EEF4E550E150FAE101EE01F1100ECE
:10FF5800EE6AE806FDE10001B2EFFFF0048E5CEC0A
:10FF6800FFF071ECFFF067ECFFF061ECFFF0D0EC14
:10FF7800FFF05DECFFF0030E186EE80E176E82ECD2
:10FF8800FFF0B1AECAEFFFF0CCEFFFF0C5EFFFF026
:10FF9800BBEFFFF0FEEFFFF021EE11F111EE17F1CC
:10FFA800050EDBC4E3F4E806FCE2F40E0D5C010E7A
:10FFB8000E58D8A0E2EFFFF0E4EFFFF0F1EFFFF00A
:10FFC800000E0E6E000E0D6E170E0F24D96EDA6A33
:10FFD800050EDA22DF50BE6E0F2A0D4A0E2A050ED4
:10FFE8000F64F9EFFFF0FBEFFFF0FDEFFFF0000EFD
:08FFF8000F6E120099EFFFF0FB
:020000040020DA
:10000000FF0FFF0FFF0FFF0FFF0FFF0FFF0FFF0F80
:10001000FF0FFF0FFF0FFF0FFF0FFF0FFF0FFF0F70
:020000040030CA
:0A0000008CFEFFFC9FFFFFFFFFFFD7
:00000001FF
