:020000040000FA
:04000000FEEFFFF020
:020000040001F9
:10FF300012001200120001EE01F10D0EEE6AE80649
:10FF4000FDE10001BFEFFFF0000ECE6E000EC66EA9
:10FF5000800EBE6E000E0401006F1200000E096ECE
:10FF6000000E0A6E000E0B6E000E0C6E000E056E7B
:10FF7000000E066E000E076E000E086E1200048E54
:10FF800098ECFFF0AEECFFF0A4ECFFF09AECFFF081
:10FF9000D0ECFFF099ECFFF0C8EFFFF0FEEFFFF0C0
:10FFA000C00EBE18D8A4D7EFFFF0D9EFFFF0DDEFF9
:10FFB000FFF0800EBE6EFDEFFFF0000E0E6E000E25
:10FFC0000F6E000E106E000E116E010E0E26000E4A
:10FFD0000F221022112211500DE1400E0E5C0D0E69
:10FFE0000F58030E1058D8A0F8EFFFF0FAEFFFF00B
:10FFF000E5EFFFF0BE2AD0EFFFF012009BEFFFF01D
:020000040020DA
:10000000FF0FFF0FFF0FFF0FFF0FFF0FFF0FFF0F80
:10001000FF0FFF0FFF0FFF0FFF0FFF0FFF0FFF0F70
:020000040030CA
:0A0000008CFEFFFC9FFFFFFFFFFFD7
:00000001FF
