:020000040000FA
:04000000FEEFFFF020
:020000040001F9
:10FDF2001200900E03011A6F540E1B6F1200000EB8
:10FE0200C66E000E0401006FA00E00017F6F12008B
:10FE1200000E096E000E0A6E000E0B6E000E0C6EC6
:10FE2200000E056E000E066E000E076E000E086EC6
:10FE32001200000E0D24D96EDA6A060EDA22DF50A5
:10FE420000017D6F040E0D260D28D8A42BEFFFF0C4
:10FE52002DEFFFF02FEFFFF0000E0D6E12000301E9
:10FE62001A517F0B1A6F0F1C116E101C126E12C5E5
:10FE720011F5126A1150196F0F50FF0A186FB15025
:10FE82007F0BB16E1A5180091A6F1200FC0EF66ECA
:10FE9200FE0EF76E010EF86E01EE00F210EE00F1AA
:10FEA2000900F5C4EEF4E550E150FAE1E250F8E160
:10FEB20001EE01F10E0EEE6AE806FDE1000162EFCD
:10FEC200FFF0048EF9ECFEF009ECFFF000ECFFF01D
:10FED200FAECFEF01AECFFF0000E106E0B0E0F6E35
:10FEE20030ECFFF0B1AE78EFFFF07AEFFFF073EF96
:10FEF200FFF06BEFFFF0FEEFFFF0808386898C8FBF
:10FF02009295989B9EA2A5A7AAADB0B3B6B9BCBE66
:10FF1200C1C4C6C9CBCED0D3D5D7DADCDEE0E2E4A9
:10FF2200E6E8EAEBEDEEF0F1F3F4F5F6F8F9FAFAB9
:10FF3200FBFCFDFDFEFEFEFFFFFFFFFFFFFFFEFEDF
:10FF4200FEFDFDFCFBFAFAF9F8F6F5F4F3F1F0EE3A
:10FF5200EDEBEAE8E6E4E2E0DEDCDAD7D5D3D0CEB8
:10FF6200CBC9C6C4C1BEBCB9B6B3B0ADAAA7A5A21F
:10FF72009E9B9895928F8C898683807C797673700C
:10FF82006D6A6764615D5A5855524F4C4946434108
:10FF92003E3B393634312F2C2A282523211F1D1BA5
:10FFA2001917151412110F0E0C0B0A090706050575
:10FFB200040302020101010000000000000001012F
:10FFC200010202030405050607090A0B0C0E0F11B4
:10FFD20012141517191B1D1F212325282A2C2F3116
:10FFE2003436393B3E414346494C4F5255585A5D8F
:0EFFF2006164676A6D707376797C47EFFFF08B
:020000040020DA
:10000000FF0FFF0FFF0FFF0FFF0FFF0FFF0FFF0F80
:10001000FF0FFF0FFF0FFF0FFF0FFF0FFF0FFF0F70
:020000040030CA
:0A0000008CFEFFFC9FFFFFFFFFFFD7
:00000001FF
