:020000040000FA
:04000000FEEFFFF020
:020000040001F9
:10FF4C0012001200120001EE01F1110EEE6AE80629
:10FF5C00FDE10001D1EFFFF0800EBE6E000EC66E0B
:10FF6C00000E0401006F300EC76E000E086F000EFD
:10FF7C00CF6E1200000E0D6E000E0E6E000E0F6E88
:10FF8C00000E106E000E096E000E0A6E000E0B6E47
:10FF9C00000E0C6E1200088EA6ECFFF0C0ECFFF009
:10FFAC00B2ECFFF0A8ECFFF0E2ECFFF0A7ECFFF0F6
:10FFBC00DAEFFFF0FEEFFFF0300ECF18D8A4E9EF28
:10FFCC00FFF0EBEFFFF0FDEFFFF0010E0126000E4E
:10FFDC0002220322042201508009BE6E100ECF189B
:10FFEC00D8A4FBEFFFF0FDEFFFF0F4EFFFF01200F1
:04FFFC00A9EFFFF07A
:020000040020DA
:10000000FF0FFF0FFF0FFF0FFF0FFF0FFF0FFF0F80
:10001000FF0FFF0FFF0FFF0FFF0FFF0FFF0FFF0F70
:020000040030CA
:0A0000008CFEFFFC9FFFFFFFFFFFD7
:00000001FF
